{
    "_format": "hh-sol-artifact-1",
    "contractName": "GrammyERC20",
    "sourceName": "contracts/GrammyERC20.sol",
    "abi": [
        {
            "inputs": [],
            "stateMutability": "nonpayable",
            "type": "constructor"
        },
        {
            "inputs": [],
            "name": "AccessControlBadConfirmation",
            "type": "error"
        },
        {
            "inputs": [
                {
                    "internalType": "address",
                    "name": "account",
                    "type": "address"
                },
                {
                    "internalType": "bytes32",
                    "name": "neededRole",
                    "type": "bytes32"
                }
            ],
            "name": "AccessControlUnauthorizedAccount",
            "type": "error"
        },
        {
            "inputs": [
                {
                    "internalType": "address",
                    "name": "spender",
                    "type": "address"
                },
                {
                    "internalType": "uint256",
                    "name": "allowance",
                    "type": "uint256"
                },
                {
                    "internalType": "uint256",
                    "name": "needed",
                    "type": "uint256"
                }
            ],
            "name": "ERC20InsufficientAllowance",
            "type": "error"
        },
        {
            "inputs": [
                {
                    "internalType": "address",
                    "name": "sender",
                    "type": "address"
                },
                {
                    "internalType": "uint256",
                    "name": "balance",
                    "type": "uint256"
                },
                {
                    "internalType": "uint256",
                    "name": "needed",
                    "type": "uint256"
                }
            ],
            "name": "ERC20InsufficientBalance",
            "type": "error"
        },
        {
            "inputs": [
                {
                    "internalType": "address",
                    "name": "approver",
                    "type": "address"
                }
            ],
            "name": "ERC20InvalidApprover",
            "type": "error"
        },
        {
            "inputs": [
                {
                    "internalType": "address",
                    "name": "receiver",
                    "type": "address"
                }
            ],
            "name": "ERC20InvalidReceiver",
            "type": "error"
        },
        {
            "inputs": [
                {
                    "internalType": "address",
                    "name": "sender",
                    "type": "address"
                }
            ],
            "name": "ERC20InvalidSender",
            "type": "error"
        },
        {
            "inputs": [
                {
                    "internalType": "address",
                    "name": "spender",
                    "type": "address"
                }
            ],
            "name": "ERC20InvalidSpender",
            "type": "error"
        },
        {
            "inputs": [],
            "name": "EnforcedPause",
            "type": "error"
        },
        {
            "inputs": [],
            "name": "ExpectedPause",
            "type": "error"
        },
        {
            "anonymous": false,
            "inputs": [
                {
                    "indexed": true,
                    "internalType": "address",
                    "name": "owner",
                    "type": "address"
                },
                {
                    "indexed": true,
                    "internalType": "address",
                    "name": "spender",
                    "type": "address"
                },
                {
                    "indexed": false,
                    "internalType": "uint256",
                    "name": "value",
                    "type": "uint256"
                }
            ],
            "name": "Approval",
            "type": "event"
        },
        {
            "anonymous": false,
            "inputs": [
                {
                    "indexed": false,
                    "internalType": "address",
                    "name": "account",
                    "type": "address"
                }
            ],
            "name": "Paused",
            "type": "event"
        },
        {
            "anonymous": false,
            "inputs": [
                {
                    "indexed": true,
                    "internalType": "bytes32",
                    "name": "role",
                    "type": "bytes32"
                },
                {
                    "indexed": true,
                    "internalType": "bytes32",
                    "name": "previousAdminRole",
                    "type": "bytes32"
                },
                {
                    "indexed": true,
                    "internalType": "bytes32",
                    "name": "newAdminRole",
                    "type": "bytes32"
                }
            ],
            "name": "RoleAdminChanged",
            "type": "event"
        },
        {
            "anonymous": false,
            "inputs": [
                {
                    "indexed": true,
                    "internalType": "bytes32",
                    "name": "role",
                    "type": "bytes32"
                },
                {
                    "indexed": true,
                    "internalType": "address",
                    "name": "account",
                    "type": "address"
                },
                {
                    "indexed": true,
                    "internalType": "address",
                    "name": "sender",
                    "type": "address"
                }
            ],
            "name": "RoleGranted",
            "type": "event"
        },
        {
            "anonymous": false,
            "inputs": [
                {
                    "indexed": true,
                    "internalType": "bytes32",
                    "name": "role",
                    "type": "bytes32"
                },
                {
                    "indexed": true,
                    "internalType": "address",
                    "name": "account",
                    "type": "address"
                },
                {
                    "indexed": true,
                    "internalType": "address",
                    "name": "sender",
                    "type": "address"
                }
            ],
            "name": "RoleRevoked",
            "type": "event"
        },
        {
            "anonymous": false,
            "inputs": [
                {
                    "indexed": true,
                    "internalType": "address",
                    "name": "from",
                    "type": "address"
                },
                {
                    "indexed": true,
                    "internalType": "address",
                    "name": "to",
                    "type": "address"
                },
                {
                    "indexed": false,
                    "internalType": "uint256",
                    "name": "value",
                    "type": "uint256"
                }
            ],
            "name": "Transfer",
            "type": "event"
        },
        {
            "anonymous": false,
            "inputs": [
                {
                    "indexed": false,
                    "internalType": "address",
                    "name": "account",
                    "type": "address"
                }
            ],
            "name": "Unpaused",
            "type": "event"
        },
        {
            "inputs": [],
            "name": "DEFAULT_ADMIN_ROLE",
            "outputs": [
                {
                    "internalType": "bytes32",
                    "name": "",
                    "type": "bytes32"
                }
            ],
            "stateMutability": "view",
            "type": "function"
        },
        {
            "inputs": [],
            "name": "MINTER_ROLE",
            "outputs": [
                {
                    "internalType": "bytes32",
                    "name": "",
                    "type": "bytes32"
                }
            ],
            "stateMutability": "view",
            "type": "function"
        },
        {
            "inputs": [],
            "name": "PAUSER_ROLE",
            "outputs": [
                {
                    "internalType": "bytes32",
                    "name": "",
                    "type": "bytes32"
                }
            ],
            "stateMutability": "view",
            "type": "function"
        },
        {
            "inputs": [
                {
                    "internalType": "address",
                    "name": "owner",
                    "type": "address"
                },
                {
                    "internalType": "address",
                    "name": "spender",
                    "type": "address"
                }
            ],
            "name": "allowance",
            "outputs": [
                {
                    "internalType": "uint256",
                    "name": "",
                    "type": "uint256"
                }
            ],
            "stateMutability": "view",
            "type": "function"
        },
        {
            "inputs": [
                {
                    "internalType": "address",
                    "name": "spender",
                    "type": "address"
                },
                {
                    "internalType": "uint256",
                    "name": "value",
                    "type": "uint256"
                }
            ],
            "name": "approve",
            "outputs": [
                {
                    "internalType": "bool",
                    "name": "",
                    "type": "bool"
                }
            ],
            "stateMutability": "nonpayable",
            "type": "function"
        },
        {
            "inputs": [
                {
                    "internalType": "address",
                    "name": "account",
                    "type": "address"
                }
            ],
            "name": "balanceOf",
            "outputs": [
                {
                    "internalType": "uint256",
                    "name": "",
                    "type": "uint256"
                }
            ],
            "stateMutability": "view",
            "type": "function"
        },
        {
            "inputs": [],
            "name": "decimals",
            "outputs": [
                {
                    "internalType": "uint8",
                    "name": "",
                    "type": "uint8"
                }
            ],
            "stateMutability": "view",
            "type": "function"
        },
        {
            "inputs": [
                {
                    "internalType": "bytes32",
                    "name": "role",
                    "type": "bytes32"
                }
            ],
            "name": "getRoleAdmin",
            "outputs": [
                {
                    "internalType": "bytes32",
                    "name": "",
                    "type": "bytes32"
                }
            ],
            "stateMutability": "view",
            "type": "function"
        },
        {
            "inputs": [
                {
                    "internalType": "bytes32",
                    "name": "role",
                    "type": "bytes32"
                },
                {
                    "internalType": "address",
                    "name": "account",
                    "type": "address"
                }
            ],
            "name": "grantRole",
            "outputs": [],
            "stateMutability": "nonpayable",
            "type": "function"
        },
        {
            "inputs": [
                {
                    "internalType": "bytes32",
                    "name": "role",
                    "type": "bytes32"
                },
                {
                    "internalType": "address",
                    "name": "account",
                    "type": "address"
                }
            ],
            "name": "hasRole",
            "outputs": [
                {
                    "internalType": "bool",
                    "name": "",
                    "type": "bool"
                }
            ],
            "stateMutability": "view",
            "type": "function"
        },
        {
            "inputs": [
                {
                    "internalType": "address",
                    "name": "to",
                    "type": "address"
                },
                {
                    "internalType": "uint256",
                    "name": "amount",
                    "type": "uint256"
                }
            ],
            "name": "mint",
            "outputs": [],
            "stateMutability": "nonpayable",
            "type": "function"
        },
        {
            "inputs": [],
            "name": "name",
            "outputs": [
                {
                    "internalType": "string",
                    "name": "",
                    "type": "string"
                }
            ],
            "stateMutability": "view",
            "type": "function"
        },
        {
            "inputs": [],
            "name": "pause",
            "outputs": [],
            "stateMutability": "nonpayable",
            "type": "function"
        },
        {
            "inputs": [],
            "name": "paused",
            "outputs": [
                {
                    "internalType": "bool",
                    "name": "",
                    "type": "bool"
                }
            ],
            "stateMutability": "view",
            "type": "function"
        },
        {
            "inputs": [
                {
                    "internalType": "bytes32",
                    "name": "role",
                    "type": "bytes32"
                },
                {
                    "internalType": "address",
                    "name": "callerConfirmation",
                    "type": "address"
                }
            ],
            "name": "renounceRole",
            "outputs": [],
            "stateMutability": "nonpayable",
            "type": "function"
        },
        {
            "inputs": [
                {
                    "internalType": "bytes32",
                    "name": "role",
                    "type": "bytes32"
                },
                {
                    "internalType": "address",
                    "name": "account",
                    "type": "address"
                }
            ],
            "name": "revokeRole",
            "outputs": [],
            "stateMutability": "nonpayable",
            "type": "function"
        },
        {
            "inputs": [
                {
                    "internalType": "bytes4",
                    "name": "interfaceId",
                    "type": "bytes4"
                }
            ],
            "name": "supportsInterface",
            "outputs": [
                {
                    "internalType": "bool",
                    "name": "",
                    "type": "bool"
                }
            ],
            "stateMutability": "view",
            "type": "function"
        },
        {
            "inputs": [],
            "name": "symbol",
            "outputs": [
                {
                    "internalType": "string",
                    "name": "",
                    "type": "string"
                }
            ],
            "stateMutability": "view",
            "type": "function"
        },
        {
            "inputs": [],
            "name": "totalSupply",
            "outputs": [
                {
                    "internalType": "uint256",
                    "name": "",
                    "type": "uint256"
                }
            ],
            "stateMutability": "view",
            "type": "function"
        },
        {
            "inputs": [
                {
                    "internalType": "address",
                    "name": "to",
                    "type": "address"
                },
                {
                    "internalType": "uint256",
                    "name": "value",
                    "type": "uint256"
                }
            ],
            "name": "transfer",
            "outputs": [
                {
                    "internalType": "bool",
                    "name": "",
                    "type": "bool"
                }
            ],
            "stateMutability": "nonpayable",
            "type": "function"
        },
        {
            "inputs": [
                {
                    "internalType": "address",
                    "name": "from",
                    "type": "address"
                },
                {
                    "internalType": "address",
                    "name": "to",
                    "type": "address"
                },
                {
                    "internalType": "uint256",
                    "name": "value",
                    "type": "uint256"
                }
            ],
            "name": "transferFrom",
            "outputs": [
                {
                    "internalType": "bool",
                    "name": "",
                    "type": "bool"
                }
            ],
            "stateMutability": "nonpayable",
            "type": "function"
        },
        {
            "inputs": [],
            "name": "unpause",
            "outputs": [],
            "stateMutability": "nonpayable",
            "type": "function"
        }
    ],
    "bytecode": "0x608060405234801561001057600080fd5b506040518060400160405280600681526020017f4752414d4d5900000000000000000000000000000000000000000000000000008152506040518060400160405280600481526020017f4752414d00000000000000000000000000000000000000000000000000000000815250816003908161008c91906104f6565b50806004908161009c91906104f6565b5050506000600660006101000a81548160ff0219169083151502179055506100cd6000801b3361013560201b60201c565b506100fe7f9f2df0fed2c77648de5860a4cc508cd0818c85b8b8a1ab4ceeef8d981c8956a63361013560201b60201c565b5061012f7f65d7a28e3265b37a6474929f336521b332c1681b933f6cb9f3376673440d862a3361013560201b60201c565b506105c8565b6000610147838361023360201b60201c565b6102285760016005600085815260200190815260200160002060000160008473ffffffffffffffffffffffffffffffffffffffff1673ffffffffffffffffffffffffffffffffffffffff16815260200190815260200160002060006101000a81548160ff0219169083151502179055506101c561029e60201b60201c565b73ffffffffffffffffffffffffffffffffffffffff168273ffffffffffffffffffffffffffffffffffffffff16847f2f8788117e7eff1d82e926ec794901d17c78024a50270940304540a733656f0d60405160405180910390a46001905061022d565b600090505b92915050565b60006005600084815260200190815260200160002060000160008373ffffffffffffffffffffffffffffffffffffffff1673ffffffffffffffffffffffffffffffffffffffff16815260200190815260200160002060009054906101000a900460ff16905092915050565b600033905090565b600081519050919050565b7f4e487b7100000000000000000000000000000000000000000000000000000000600052604160045260246000fd5b7f4e487b7100000000000000000000000000000000000000000000000000000000600052602260045260246000fd5b6000600282049050600182168061032757607f821691505b60208210810361033a576103396102e0565b5b50919050565b60008190508160005260206000209050919050565b60006020601f8301049050919050565b600082821b905092915050565b6000600883026103a27fffffffffffffffffffffffffffffffffffffffffffffffffffffffffffffffff82610365565b6103ac8683610365565b95508019841693508086168417925050509392505050565b6000819050919050565b6000819050919050565b60006103f36103ee6103e9846103c4565b6103ce565b6103c4565b9050919050565b6000819050919050565b61040d836103d8565b610421610419826103fa565b848454610372565b825550505050565b600090565b610436610429565b610441818484610404565b505050565b5b818110156104655761045a60008261042e565b600181019050610447565b5050565b601f8211156104aa5761047b81610340565b61048484610355565b81016020851015610493578190505b6104a761049f85610355565b830182610446565b50505b505050565b600082821c905092915050565b60006104cd600019846008026104af565b1980831691505092915050565b60006104e683836104bc565b9150826002028217905092915050565b6104ff826102a6565b67ffffffffffffffff811115610518576105176102b1565b5b610522825461030f565b61052d828285610469565b600060209050601f831160018114610560576000841561054e578287015190505b61055885826104da565b8655506105c0565b601f19841661056e86610340565b60005b8281101561059657848901518255600182019150602085019450602081019050610571565b868310156105b357848901516105af601f8916826104bc565b8355505b6001600288020188555050505b505050505050565b61197d806105d76000396000f3fe608060405234801561001057600080fd5b50600436106101425760003560e01c80635c975abb116100b8578063a217fddf1161007c578063a217fddf14610365578063a9059cbb14610383578063d5391393146103b3578063d547741f146103d1578063dd62ed3e146103ed578063e63ab1e91461041d57610142565b80635c975abb146102bf57806370a08231146102dd5780638456cb591461030d57806391d148541461031757806395d89b411461034757610142565b8063248a9ca31161010a578063248a9ca3146102135780632f2ff15d14610243578063313ce5671461025f57806336568abe1461027d5780633f4ba83a1461029957806340c10f19146102a357610142565b806301ffc9a71461014757806306fdde0314610177578063095ea7b31461019557806318160ddd146101c557806323b872dd146101e3575b600080fd5b610161600480360381019061015c9190611423565b61043b565b60405161016e919061146b565b60405180910390f35b61017f6104b5565b60405161018c9190611516565b60405180910390f35b6101af60048036038101906101aa91906115cc565b610547565b6040516101bc919061146b565b60405180910390f35b6101cd61056a565b6040516101da919061161b565b60405180910390f35b6101fd60048036038101906101f89190611636565b610574565b60405161020a919061146b565b60405180910390f35b61022d600480360381019061022891906116bf565b6105a3565b60405161023a91906116fb565b60405180910390f35b61025d60048036038101906102589190611716565b6105c3565b005b6102676105e5565b6040516102749190611772565b60405180910390f35b61029760048036038101906102929190611716565b6105ee565b005b6102a1610669565b005b6102bd60048036038101906102b891906115cc565b61069e565b005b6102c76106d7565b6040516102d4919061146b565b60405180910390f35b6102f760048036038101906102f2919061178d565b6106ee565b604051610304919061161b565b60405180910390f35b610315610736565b005b610331600480360381019061032c9190611716565b61076b565b60405161033e919061146b565b60405180910390f35b61034f6107d6565b60405161035c9190611516565b60405180910390f35b61036d610868565b60405161037a91906116fb565b60405180910390f35b61039d600480360381019061039891906115cc565b61086f565b6040516103aa919061146b565b60405180910390f35b6103bb610892565b6040516103c891906116fb565b60405180910390f35b6103eb60048036038101906103e69190611716565b6108b6565b005b610407600480360381019061040291906117ba565b6108d8565b604051610414919061161b565b60405180910390f35b61042561095f565b60405161043291906116fb565b60405180910390f35b60007f7965db0b000000000000000000000000000000000000000000000000000000007bffffffffffffffffffffffffffffffffffffffffffffffffffffffff1916827bffffffffffffffffffffffffffffffffffffffffffffffffffffffff191614806104ae57506104ad82610983565b5b9050919050565b6060600380546104c490611829565b80601f01602080910402602001604051908101604052809291908181526020018280546104f090611829565b801561053d5780601f106105125761010080835404028352916020019161053d565b820191906000526020600020905b81548152906001019060200180831161052057829003601f168201915b5050505050905090565b6000806105526109ed565b905061055f8185856109f5565b600191505092915050565b6000600254905090565b60008061057f6109ed565b905061058c858285610a07565b610597858585610a9b565b60019150509392505050565b600060056000838152602001908152602001600020600101549050919050565b6105cc826105a3565b6105d581610b8f565b6105df8383610ba3565b50505050565b60006012905090565b6105f66109ed565b73ffffffffffffffffffffffffffffffffffffffff168173ffffffffffffffffffffffffffffffffffffffff161461065a576040517f6697b23200000000000000000000000000000000000000000000000000000000815260040160405180910390fd5b6106648282610c95565b505050565b7f65d7a28e3265b37a6474929f336521b332c1681b933f6cb9f3376673440d862a61069381610b8f565b61069b610d88565b50565b7f9f2df0fed2c77648de5860a4cc508cd0818c85b8b8a1ab4ceeef8d981c8956a66106c881610b8f565b6106d28383610deb565b505050565b6000600660009054906101000a900460ff16905090565b60008060008373ffffffffffffffffffffffffffffffffffffffff1673ffffffffffffffffffffffffffffffffffffffff168152602001908152602001600020549050919050565b7f65d7a28e3265b37a6474929f336521b332c1681b933f6cb9f3376673440d862a61076081610b8f565b610768610e6d565b50565b60006005600084815260200190815260200160002060000160008373ffffffffffffffffffffffffffffffffffffffff1673ffffffffffffffffffffffffffffffffffffffff16815260200190815260200160002060009054906101000a900460ff16905092915050565b6060600480546107e590611829565b80601f016020809104026020016040519081016040528092919081815260200182805461081190611829565b801561085e5780601f106108335761010080835404028352916020019161085e565b820191906000526020600020905b81548152906001019060200180831161084157829003601f168201915b5050505050905090565b6000801b81565b60008061087a6109ed565b9050610887818585610a9b565b600191505092915050565b7f9f2df0fed2c77648de5860a4cc508cd0818c85b8b8a1ab4ceeef8d981c8956a681565b6108bf826105a3565b6108c881610b8f565b6108d28383610c95565b50505050565b6000600160008473ffffffffffffffffffffffffffffffffffffffff1673ffffffffffffffffffffffffffffffffffffffff16815260200190815260200160002060008373ffffffffffffffffffffffffffffffffffffffff1673ffffffffffffffffffffffffffffffffffffffff16815260200190815260200160002054905092915050565b7f65d7a28e3265b37a6474929f336521b332c1681b933f6cb9f3376673440d862a81565b60007f01ffc9a7000000000000000000000000000000000000000000000000000000007bffffffffffffffffffffffffffffffffffffffffffffffffffffffff1916827bffffffffffffffffffffffffffffffffffffffffffffffffffffffff1916149050919050565b600033905090565b610a028383836001610ed0565b505050565b6000610a1384846108d8565b90507fffffffffffffffffffffffffffffffffffffffffffffffffffffffffffffffff8114610a955781811015610a85578281836040517ffb8f41b2000000000000000000000000000000000000000000000000000000008152600401610a7c93929190611869565b60405180910390fd5b610a9484848484036000610ed0565b5b50505050565b600073ffffffffffffffffffffffffffffffffffffffff168373ffffffffffffffffffffffffffffffffffffffff1603610b0d5760006040517f96c6fd1e000000000000000000000000000000000000000000000000000000008152600401610b0491906118a0565b60405180910390fd5b600073ffffffffffffffffffffffffffffffffffffffff168273ffffffffffffffffffffffffffffffffffffffff1603610b7f5760006040517fec442f05000000000000000000000000000000000000000000000000000000008152600401610b7691906118a0565b60405180910390fd5b610b8a8383836110a7565b505050565b610ba081610b9b6109ed565b6110b7565b50565b6000610baf838361076b565b610c8a5760016005600085815260200190815260200160002060000160008473ffffffffffffffffffffffffffffffffffffffff1673ffffffffffffffffffffffffffffffffffffffff16815260200190815260200160002060006101000a81548160ff021916908315150217905550610c276109ed565b73ffffffffffffffffffffffffffffffffffffffff168273ffffffffffffffffffffffffffffffffffffffff16847f2f8788117e7eff1d82e926ec794901d17c78024a50270940304540a733656f0d60405160405180910390a460019050610c8f565b600090505b92915050565b6000610ca1838361076b565b15610d7d5760006005600085815260200190815260200160002060000160008473ffffffffffffffffffffffffffffffffffffffff1673ffffffffffffffffffffffffffffffffffffffff16815260200190815260200160002060006101000a81548160ff021916908315150217905550610d1a6109ed565b73ffffffffffffffffffffffffffffffffffffffff168273ffffffffffffffffffffffffffffffffffffffff16847ff6391f5c32d9c69d2a47ea670b442974b53935d1edc7fd64eb21e047a839171b60405160405180910390a460019050610d82565b600090505b92915050565b610d90611108565b6000600660006101000a81548160ff0219169083151502179055507f5db9ee0a495bf2e6ff9c91a7834c1ba4fdd244a5e8aa4e537bd38aeae4b073aa610dd46109ed565b604051610de191906118a0565b60405180910390a1565b600073ffffffffffffffffffffffffffffffffffffffff168273ffffffffffffffffffffffffffffffffffffffff1603610e5d5760006040517fec442f05000000000000000000000000000000000000000000000000000000008152600401610e5491906118a0565b60405180910390fd5b610e69600083836110a7565b5050565b610e75611148565b6001600660006101000a81548160ff0219169083151502179055507f62e78cea01bee320cd4e420270b5ea74000d11b0c9f74754ebdbfc544b05a258610eb96109ed565b604051610ec691906118a0565b60405180910390a1565b600073ffffffffffffffffffffffffffffffffffffffff168473ffffffffffffffffffffffffffffffffffffffff1603610f425760006040517fe602df05000000000000000000000000000000000000000000000000000000008152600401610f3991906118a0565b60405180910390fd5b600073ffffffffffffffffffffffffffffffffffffffff168373ffffffffffffffffffffffffffffffffffffffff1603610fb45760006040517f94280d62000000000000000000000000000000000000000000000000000000008152600401610fab91906118a0565b60405180910390fd5b81600160008673ffffffffffffffffffffffffffffffffffffffff1673ffffffffffffffffffffffffffffffffffffffff16815260200190815260200160002060008573ffffffffffffffffffffffffffffffffffffffff1673ffffffffffffffffffffffffffffffffffffffff1681526020019081526020016000208190555080156110a1578273ffffffffffffffffffffffffffffffffffffffff168473ffffffffffffffffffffffffffffffffffffffff167f8c5be1e5ebec7d5bd14f71427d1e84f3dd0314c0f7b2291e5b200ac8c7c3b92584604051611098919061161b565b60405180910390a35b50505050565b6110b2838383611189565b505050565b6110c1828261076b565b6111045780826040517fe2517d3f0000000000000000000000000000000000000000000000000000000081526004016110fb9291906118bb565b60405180910390fd5b5050565b6111106106d7565b611146576040517f8dfc202b00000000000000000000000000000000000000000000000000000000815260040160405180910390fd5b565b6111506106d7565b15611187576040517fd93c066500000000000000000000000000000000000000000000000000000000815260040160405180910390fd5b565b611191611148565b61119c8383836111a1565b505050565b600073ffffffffffffffffffffffffffffffffffffffff168373ffffffffffffffffffffffffffffffffffffffff16036111f35780600260008282546111e79190611913565b925050819055506112c6565b60008060008573ffffffffffffffffffffffffffffffffffffffff1673ffffffffffffffffffffffffffffffffffffffff1681526020019081526020016000205490508181101561127f578381836040517fe450d38c00000000000000000000000000000000000000000000000000000000815260040161127693929190611869565b60405180910390fd5b8181036000808673ffffffffffffffffffffffffffffffffffffffff1673ffffffffffffffffffffffffffffffffffffffff16815260200190815260200160002081905550505b600073ffffffffffffffffffffffffffffffffffffffff168273ffffffffffffffffffffffffffffffffffffffff160361130f578060026000828254039250508190555061135c565b806000808473ffffffffffffffffffffffffffffffffffffffff1673ffffffffffffffffffffffffffffffffffffffff168152602001908152602001600020600082825401925050819055505b8173ffffffffffffffffffffffffffffffffffffffff168373ffffffffffffffffffffffffffffffffffffffff167fddf252ad1be2c89b69c2b068fc378daa952ba7f163c4a11628f55a4df523b3ef836040516113b9919061161b565b60405180910390a3505050565b600080fd5b60007fffffffff0000000000000000000000000000000000000000000000000000000082169050919050565b611400816113cb565b811461140b57600080fd5b50565b60008135905061141d816113f7565b92915050565b600060208284031215611439576114386113c6565b5b60006114478482850161140e565b91505092915050565b60008115159050919050565b61146581611450565b82525050565b6000602082019050611480600083018461145c565b92915050565b600081519050919050565b600082825260208201905092915050565b60005b838110156114c05780820151818401526020810190506114a5565b60008484015250505050565b6000601f19601f8301169050919050565b60006114e882611486565b6114f28185611491565b93506115028185602086016114a2565b61150b816114cc565b840191505092915050565b6000602082019050818103600083015261153081846114dd565b905092915050565b600073ffffffffffffffffffffffffffffffffffffffff82169050919050565b600061156382611538565b9050919050565b61157381611558565b811461157e57600080fd5b50565b6000813590506115908161156a565b92915050565b6000819050919050565b6115a981611596565b81146115b457600080fd5b50565b6000813590506115c6816115a0565b92915050565b600080604083850312156115e3576115e26113c6565b5b60006115f185828601611581565b9250506020611602858286016115b7565b9150509250929050565b61161581611596565b82525050565b6000602082019050611630600083018461160c565b92915050565b60008060006060848603121561164f5761164e6113c6565b5b600061165d86828701611581565b935050602061166e86828701611581565b925050604061167f868287016115b7565b9150509250925092565b6000819050919050565b61169c81611689565b81146116a757600080fd5b50565b6000813590506116b981611693565b92915050565b6000602082840312156116d5576116d46113c6565b5b60006116e3848285016116aa565b91505092915050565b6116f581611689565b82525050565b600060208201905061171060008301846116ec565b92915050565b6000806040838503121561172d5761172c6113c6565b5b600061173b858286016116aa565b925050602061174c85828601611581565b9150509250929050565b600060ff82169050919050565b61176c81611756565b82525050565b60006020820190506117876000830184611763565b92915050565b6000602082840312156117a3576117a26113c6565b5b60006117b184828501611581565b91505092915050565b600080604083850312156117d1576117d06113c6565b5b60006117df85828601611581565b92505060206117f085828601611581565b9150509250929050565b7f4e487b7100000000000000000000000000000000000000000000000000000000600052602260045260246000fd5b6000600282049050600182168061184157607f821691505b602082108103611854576118536117fa565b5b50919050565b61186381611558565b82525050565b600060608201905061187e600083018661185a565b61188b602083018561160c565b611898604083018461160c565b949350505050565b60006020820190506118b5600083018461185a565b92915050565b60006040820190506118d0600083018561185a565b6118dd60208301846116ec565b9392505050565b7f4e487b7100000000000000000000000000000000000000000000000000000000600052601160045260246000fd5b600061191e82611596565b915061192983611596565b9250828201905080821115611941576119406118e4565b5b9291505056fea26469706673582212201cd1d528c4cb625519bbb24b2b36440063fd74dffc05bc0af6d5abd6030683ef64736f6c634300081b0033",
    "linkReferences": {},
    "deployedLinkReferences": {}
}