{
  "_format": "hh-sol-artifact-1",
  "contractName": "MarketFactory",
  "sourceName": "contracts/MarketFactory.sol",
  "abi": [
    {
      "inputs": [],
      "stateMutability": "nonpayable",
      "type": "constructor"
    },
    {
      "inputs": [
        {
          "internalType": "address",
          "name": "owner",
          "type": "address"
        }
      ],
      "name": "OwnableInvalidOwner",
      "type": "error"
    },
    {
      "inputs": [
        {
          "internalType": "address",
          "name": "account",
          "type": "address"
        }
      ],
      "name": "OwnableUnauthorizedAccount",
      "type": "error"
    },
    {
      "anonymous": false,
      "inputs": [
        {
          "indexed": true,
          "internalType": "address",
          "name": "marketAddress",
          "type": "address"
        },
        {
          "indexed": false,
          "internalType": "string",
          "name": "title",
          "type": "string"
        },
        {
          "indexed": false,
          "internalType": "uint256",
          "name": "expiration",
          "type": "uint256"
        }
      ],
      "name": "MarketCreated",
      "type": "event"
    },
    {
      "anonymous": false,
      "inputs": [
        {
          "indexed": true,
          "internalType": "address",
          "name": "previousOwner",
          "type": "address"
        },
        {
          "indexed": true,
          "internalType": "address",
          "name": "newOwner",
          "type": "address"
        }
      ],
      "name": "OwnershipTransferred",
      "type": "event"
    },
    {
      "inputs": [
        {
          "internalType": "string",
          "name": "title",
          "type": "string"
        },
        {
          "internalType": "string",
          "name": "description",
          "type": "string"
        },
        {
          "internalType": "string[]",
          "name": "outcomes",
          "type": "string[]"
        },
        {
          "internalType": "uint256",
          "name": "expiration",
          "type": "uint256"
        },
        {
          "internalType": "address",
          "name": "admin",
          "type": "address"
        },
        {
          "internalType": "contract IERC20",
          "name": "token",
          "type": "address"
        },
        {
          "internalType": "string",
          "name": "marketType",
          "type": "string"
        },
        {
          "internalType": "bool",
          "name": "allowNewOutcomes",
          "type": "bool"
        }
      ],
      "name": "createMarket",
      "outputs": [],
      "stateMutability": "nonpayable",
      "type": "function"
    },
    {
      "inputs": [],
      "name": "getMarkets",
      "outputs": [
        {
          "internalType": "address[]",
          "name": "",
          "type": "address[]"
        }
      ],
      "stateMutability": "view",
      "type": "function"
    },
    {
      "inputs": [
        {
          "internalType": "uint256",
          "name": "",
          "type": "uint256"
        }
      ],
      "name": "markets",
      "outputs": [
        {
          "internalType": "address",
          "name": "",
          "type": "address"
        }
      ],
      "stateMutability": "view",
      "type": "function"
    },
    {
      "inputs": [],
      "name": "owner",
      "outputs": [
        {
          "internalType": "address",
          "name": "",
          "type": "address"
        }
      ],
      "stateMutability": "view",
      "type": "function"
    },
    {
      "inputs": [],
      "name": "renounceOwnership",
      "outputs": [],
      "stateMutability": "nonpayable",
      "type": "function"
    },
    {
      "inputs": [
        {
          "internalType": "address",
          "name": "newOwner",
          "type": "address"
        }
      ],
      "name": "transferOwnership",
      "outputs": [],
      "stateMutability": "nonpayable",
      "type": "function"
    }
  ],
  "bytecode": "0x608060405234801561001057600080fd5b5033600073ffffffffffffffffffffffffffffffffffffffff168173ffffffffffffffffffffffffffffffffffffffff16036100845760006040517f1e4fbdf700000000000000000000000000000000000000000000000000000000815260040161007b91906101ad565b60405180910390fd5b610093816100a860201b60201c565b506100a3336100a860201b60201c565b6101c8565b60008060009054906101000a900473ffffffffffffffffffffffffffffffffffffffff169050816000806101000a81548173ffffffffffffffffffffffffffffffffffffffff021916908373ffffffffffffffffffffffffffffffffffffffff1602179055508173ffffffffffffffffffffffffffffffffffffffff168173ffffffffffffffffffffffffffffffffffffffff167f8be0079c531659141344cd1fd0a4f28419497f9722a3daafe3b4186f6b6457e060405160405180910390a35050565b600073ffffffffffffffffffffffffffffffffffffffff82169050919050565b60006101978261016c565b9050919050565b6101a78161018c565b82525050565b60006020820190506101c2600083018461019e565b92915050565b614c36806101d76000396000f3fe608060405234801561001057600080fd5b50600436106100625760003560e01c8063715018a6146100675780638da5cb5b14610071578063b1283e771461008f578063d833039a146100bf578063ec2c9016146100db578063f2fde38b146100f9575b600080fd5b61006f610115565b005b610079610129565b6040516100869190610791565b60405180910390f35b6100a960048036038101906100a491906107f6565b610152565b6040516100b69190610791565b60405180910390f35b6100d960048036038101906100d49190610af1565b610191565b005b6100e36104dc565b6040516100f09190610cd5565b60405180910390f35b610113600480360381019061010e9190610cf7565b61056a565b005b61011d6105f0565b6101276000610677565b565b60008060009054906101000a900473ffffffffffffffffffffffffffffffffffffffff16905090565b6001818154811061016257600080fd5b906000526020600020016000915054906101000a900473ffffffffffffffffffffffffffffffffffffffff1681565b6101996105f0565b4285116101db576040517f08c379a00000000000000000000000000000000000000000000000000000000081526004016101d290610da7565b60405180910390fd5b600073ffffffffffffffffffffffffffffffffffffffff168473ffffffffffffffffffffffffffffffffffffffff160361024a576040517f08c379a000000000000000000000000000000000000000000000000000000000815260040161024190610e13565b60405180910390fd5b600073ffffffffffffffffffffffffffffffffffffffff168373ffffffffffffffffffffffffffffffffffffffff16036102b9576040517f08c379a00000000000000000000000000000000000000000000000000000000081526004016102b090610e7f565b60405180910390fd5b6040518060400160405280600481526020017f736f6e6700000000000000000000000000000000000000000000000000000000815250805190602001208280519060200120148061034c57506040518060400160405280600681526020017f6172746973740000000000000000000000000000000000000000000000000000815250805190602001208280519060200120145b8061039957506040518060400160405280600581526020017f616c62756d000000000000000000000000000000000000000000000000000000815250805190602001208280519060200120145b6103d8576040517f08c379a00000000000000000000000000000000000000000000000000000000081526004016103cf90610eeb565b60405180910390fd5b600088888888888888886040516103ee90610743565b6103ff989796959493929190611102565b604051809103906000f08015801561041b573d6000803e3d6000fd5b5090506001819080600181540180825580915050600190039060005260206000200160009091909190916101000a81548173ffffffffffffffffffffffffffffffffffffffff021916908373ffffffffffffffffffffffffffffffffffffffff1602179055508073ffffffffffffffffffffffffffffffffffffffff167f722ae84a51a6ffda776101ab2fd15e847cc928f5e7d09adf73299ef5b12fb9468a886040516104c992919061119c565b60405180910390a2505050505050505050565b6060600180548060200260200160405190810160405280929190818152602001828054801561056057602002820191906000526020600020905b8160009054906101000a900473ffffffffffffffffffffffffffffffffffffffff1673ffffffffffffffffffffffffffffffffffffffff1681526020019060010190808311610516575b5050505050905090565b6105726105f0565b600073ffffffffffffffffffffffffffffffffffffffff168173ffffffffffffffffffffffffffffffffffffffff16036105e45760006040517f1e4fbdf70000000000000000000000000000000000000000000000000000000081526004016105db9190610791565b60405180910390fd5b6105ed81610677565b50565b6105f861073b565b73ffffffffffffffffffffffffffffffffffffffff16610616610129565b73ffffffffffffffffffffffffffffffffffffffff16146106755761063961073b565b6040517f118cdaa700000000000000000000000000000000000000000000000000000000815260040161066c9190610791565b60405180910390fd5b565b60008060009054906101000a900473ffffffffffffffffffffffffffffffffffffffff169050816000806101000a81548173ffffffffffffffffffffffffffffffffffffffff021916908373ffffffffffffffffffffffffffffffffffffffff1602179055508173ffffffffffffffffffffffffffffffffffffffff168173ffffffffffffffffffffffffffffffffffffffff167f8be0079c531659141344cd1fd0a4f28419497f9722a3daafe3b4186f6b6457e060405160405180910390a35050565b600033905090565b613a34806111cd83390190565b600073ffffffffffffffffffffffffffffffffffffffff82169050919050565b600061077b82610750565b9050919050565b61078b81610770565b82525050565b60006020820190506107a66000830184610782565b92915050565b6000604051905090565b600080fd5b600080fd5b6000819050919050565b6107d3816107c0565b81146107de57600080fd5b50565b6000813590506107f0816107ca565b92915050565b60006020828403121561080c5761080b6107b6565b5b600061081a848285016107e1565b91505092915050565b600080fd5b600080fd5b6000601f19601f8301169050919050565b7f4e487b7100000000000000000000000000000000000000000000000000000000600052604160045260246000fd5b6108768261082d565b810181811067ffffffffffffffff821117156108955761089461083e565b5b80604052505050565b60006108a86107ac565b90506108b4828261086d565b919050565b600067ffffffffffffffff8211156108d4576108d361083e565b5b6108dd8261082d565b9050602081019050919050565b82818337600083830152505050565b600061090c610907846108b9565b61089e565b90508281526020810184848401111561092857610927610828565b5b6109338482856108ea565b509392505050565b600082601f8301126109505761094f610823565b5b81356109608482602086016108f9565b91505092915050565b600067ffffffffffffffff8211156109845761098361083e565b5b602082029050602081019050919050565b600080fd5b60006109ad6109a884610969565b61089e565b905080838252602082019050602084028301858111156109d0576109cf610995565b5b835b81811015610a1757803567ffffffffffffffff8111156109f5576109f4610823565b5b808601610a02898261093b565b855260208501945050506020810190506109d2565b5050509392505050565b600082601f830112610a3657610a35610823565b5b8135610a4684826020860161099a565b91505092915050565b610a5881610770565b8114610a6357600080fd5b50565b600081359050610a7581610a4f565b92915050565b6000610a8682610770565b9050919050565b610a9681610a7b565b8114610aa157600080fd5b50565b600081359050610ab381610a8d565b92915050565b60008115159050919050565b610ace81610ab9565b8114610ad957600080fd5b50565b600081359050610aeb81610ac5565b92915050565b600080600080600080600080610100898b031215610b1257610b116107b6565b5b600089013567ffffffffffffffff811115610b3057610b2f6107bb565b5b610b3c8b828c0161093b565b985050602089013567ffffffffffffffff811115610b5d57610b5c6107bb565b5b610b698b828c0161093b565b975050604089013567ffffffffffffffff811115610b8a57610b896107bb565b5b610b968b828c01610a21565b9650506060610ba78b828c016107e1565b9550506080610bb88b828c01610a66565b94505060a0610bc98b828c01610aa4565b93505060c089013567ffffffffffffffff811115610bea57610be96107bb565b5b610bf68b828c0161093b565b92505060e0610c078b828c01610adc565b9150509295985092959890939650565b600081519050919050565b600082825260208201905092915050565b6000819050602082019050919050565b610c4c81610770565b82525050565b6000610c5e8383610c43565b60208301905092915050565b6000602082019050919050565b6000610c8282610c17565b610c8c8185610c22565b9350610c9783610c33565b8060005b83811015610cc8578151610caf8882610c52565b9750610cba83610c6a565b925050600181019050610c9b565b5085935050505092915050565b60006020820190508181036000830152610cef8184610c77565b905092915050565b600060208284031215610d0d57610d0c6107b6565b5b6000610d1b84828501610a66565b91505092915050565b600082825260208201905092915050565b7f45787069726174696f6e206d75737420626520696e207468652066757475726560008201527f2e00000000000000000000000000000000000000000000000000000000000000602082015250565b6000610d91602183610d24565b9150610d9c82610d35565b604082019050919050565b60006020820190508181036000830152610dc081610d84565b9050919050565b7f41646d696e20616464726573732063616e6e6f74206265207a65726f2e000000600082015250565b6000610dfd601d83610d24565b9150610e0882610dc7565b602082019050919050565b60006020820190508181036000830152610e2c81610df0565b9050919050565b7f546f6b656e20616464726573732063616e6e6f74206265207a65726f2e000000600082015250565b6000610e69601d83610d24565b9150610e7482610e33565b602082019050919050565b60006020820190508181036000830152610e9881610e5c565b9050919050565b7f496e76616c6964206d61726b6574207479706500000000000000000000000000600082015250565b6000610ed5601383610d24565b9150610ee082610e9f565b602082019050919050565b60006020820190508181036000830152610f0481610ec8565b9050919050565b600081519050919050565b60005b83811015610f34578082015181840152602081019050610f19565b60008484015250505050565b6000610f4b82610f0b565b610f558185610d24565b9350610f65818560208601610f16565b610f6e8161082d565b840191505092915050565b600081519050919050565b600082825260208201905092915050565b6000819050602082019050919050565b600082825260208201905092915050565b6000610fc182610f0b565b610fcb8185610fa5565b9350610fdb818560208601610f16565b610fe48161082d565b840191505092915050565b6000610ffb8383610fb6565b905092915050565b6000602082019050919050565b600061101b82610f79565b6110258185610f84565b93508360208202850161103785610f95565b8060005b8581101561107357848403895281516110548582610fef565b945061105f83611003565b925060208a0199505060018101905061103b565b50829750879550505050505092915050565b61108e816107c0565b82525050565b6000819050919050565b60006110b96110b46110af84610750565b611094565b610750565b9050919050565b60006110cb8261109e565b9050919050565b60006110dd826110c0565b9050919050565b6110ed816110d2565b82525050565b6110fc81610ab9565b82525050565b600061010082019050818103600083015261111d818b610f40565b90508181036020830152611131818a610f40565b905081810360408301526111458189611010565b90506111546060830188611085565b6111616080830187610782565b61116e60a08301866110e4565b81810360c08301526111808185610f40565b905061118f60e08301846110f3565b9998505050505050505050565b600060408201905081810360008301526111b68185610f40565b90506111c56020830184611085565b939250505056fe608060405234801561001057600080fd5b50604051613a34380380613a34833981810160405281019061003291906105aa565b428511610074576040517f08c379a000000000000000000000000000000000000000000000000000000000815260040161006b90610753565b60405180910390fd5b8760009081610083919061098a565b508660019081610093919061098a565b5085600290805190602001906100aa92919061016b565b508460088190555083600960016101000a81548173ffffffffffffffffffffffffffffffffffffffff021916908373ffffffffffffffffffffffffffffffffffffffff16021790555082600a60006101000a81548173ffffffffffffffffffffffffffffffffffffffff021916908373ffffffffffffffffffffffffffffffffffffffff16021790555081600d9081610143919061098a565b5080600e60006101000a81548160ff0219169083151502179055505050505050505050610a5c565b8280548282559060005260206000209081019282156101b3579160200282015b828111156101b25782518290816101a2919061098a565b509160200191906001019061018b565b5b5090506101c091906101c4565b5090565b5b808211156101e457600081816101db91906101e8565b506001016101c5565b5090565b5080546101f4906107ad565b6000825580601f106102065750610225565b601f0160209004906000526020600020908101906102249190610228565b5b50565b5b80821115610241576000816000905550600101610229565b5090565b6000604051905090565b600080fd5b600080fd5b600080fd5b600080fd5b6000601f19601f8301169050919050565b7f4e487b7100000000000000000000000000000000000000000000000000000000600052604160045260246000fd5b6102ac82610263565b810181811067ffffffffffffffff821117156102cb576102ca610274565b5b80604052505050565b60006102de610245565b90506102ea82826102a3565b919050565b600067ffffffffffffffff82111561030a57610309610274565b5b61031382610263565b9050602081019050919050565b60005b8381101561033e578082015181840152602081019050610323565b60008484015250505050565b600061035d610358846102ef565b6102d4565b9050828152602081018484840111156103795761037861025e565b5b610384848285610320565b509392505050565b600082601f8301126103a1576103a0610259565b5b81516103b184826020860161034a565b91505092915050565b600067ffffffffffffffff8211156103d5576103d4610274565b5b602082029050602081019050919050565b600080fd5b60006103fe6103f9846103ba565b6102d4565b90508083825260208201905060208402830185811115610421576104206103e6565b5b835b8181101561046857805167ffffffffffffffff81111561044657610445610259565b5b808601610453898261038c565b85526020850194505050602081019050610423565b5050509392505050565b600082601f83011261048757610486610259565b5b81516104978482602086016103eb565b91505092915050565b6000819050919050565b6104b3816104a0565b81146104be57600080fd5b50565b6000815190506104d0816104aa565b92915050565b600073ffffffffffffffffffffffffffffffffffffffff82169050919050565b6000610501826104d6565b9050919050565b610511816104f6565b811461051c57600080fd5b50565b60008151905061052e81610508565b92915050565b600061053f826104f6565b9050919050565b61054f81610534565b811461055a57600080fd5b50565b60008151905061056c81610546565b92915050565b60008115159050919050565b61058781610572565b811461059257600080fd5b50565b6000815190506105a48161057e565b92915050565b600080600080600080600080610100898b0312156105cb576105ca61024f565b5b600089015167ffffffffffffffff8111156105e9576105e8610254565b5b6105f58b828c0161038c565b985050602089015167ffffffffffffffff81111561061657610615610254565b5b6106228b828c0161038c565b975050604089015167ffffffffffffffff81111561064357610642610254565b5b61064f8b828c01610472565b96505060606106608b828c016104c1565b95505060806106718b828c0161051f565b94505060a06106828b828c0161055d565b93505060c089015167ffffffffffffffff8111156106a3576106a2610254565b5b6106af8b828c0161038c565b92505060e06106c08b828c01610595565b9150509295985092959890939650565b600082825260208201905092915050565b7f45787069726174696f6e206d75737420626520696e207468652066757475726560008201527f2e00000000000000000000000000000000000000000000000000000000000000602082015250565b600061073d6021836106d0565b9150610748826106e1565b604082019050919050565b6000602082019050818103600083015261076c81610730565b9050919050565b600081519050919050565b7f4e487b7100000000000000000000000000000000000000000000000000000000600052602260045260246000fd5b600060028204905060018216806107c557607f821691505b6020821081036107d8576107d761077e565b5b50919050565b60008190508160005260206000209050919050565b60006020601f8301049050919050565b600082821b905092915050565b6000600883026108407fffffffffffffffffffffffffffffffffffffffffffffffffffffffffffffffff82610803565b61084a8683610803565b95508019841693508086168417925050509392505050565b6000819050919050565b600061088761088261087d846104a0565b610862565b6104a0565b9050919050565b6000819050919050565b6108a18361086c565b6108b56108ad8261088e565b848454610810565b825550505050565b600090565b6108ca6108bd565b6108d5818484610898565b505050565b5b818110156108f9576108ee6000826108c2565b6001810190506108db565b5050565b601f82111561093e5761090f816107de565b610918846107f3565b81016020851015610927578190505b61093b610933856107f3565b8301826108da565b50505b505050565b600082821c905092915050565b600061096160001984600802610943565b1980831691505092915050565b600061097a8383610950565b9150826002028217905092915050565b61099382610773565b67ffffffffffffffff8111156109ac576109ab610274565b5b6109b682546107ad565b6109c18282856108fd565b600060209050601f8311600181146109f457600084156109e2578287015190505b6109ec858261096e565b865550610a54565b601f198416610a02866107de565b60005b82811015610a2a57848901518255600182019150602085019450602081019050610a05565b86831015610a475784890151610a43601f891682610950565b8355505b6001600288020188555050505b505050505050565b612fc980610a6b6000396000f3fe608060405234801561001057600080fd5b50600436106101375760003560e01c80634c4a386f116100b8578063b2016bd41161007c578063b2016bd41461032e578063b5d5b5fa1461034c578063ba0eaf6a1461037c578063cc42e83a14610398578063eed2a147146103a2578063f851a440146103d257610137565b80634c4a386f1461028657806360efb96d146102a45780636335eef8146102d45780637284e416146102f2578063aac5a3df1461031057610137565b80633f6fa655116100ff5780633f6fa655146101e057806340282252146101fe5780634665096d1461022e5780634a79d50c1461024c5780634afe62b51461026a57610137565b8063110f88741461013c5780632276e11f146101465780632c3a418b146101765780632dd48909146101925780633a8e983f146101b0575b600080fd5b6101446103f0565b005b610160600480360381019061015b9190611aa1565b61077a565b60405161016d9190611add565b60405180910390f35b610190600480360381019061018b9190611c3e565b61079e565b005b61019a610b35565b6040516101a79190611d48565b60405180910390f35b6101ca60048036038101906101c59190611d6a565b610bc3565b6040516101d79190611dce565b60405180910390f35b6101e8610bf9565b6040516101f59190611dce565b60405180910390f35b61021860048036038101906102139190611aa1565b610c0c565b6040516102259190611add565b60405180910390f35b610236610c24565b6040516102439190611add565b60405180910390f35b610254610c2a565b6040516102619190611d48565b60405180910390f35b610284600480360381019061027f9190611de9565b610cb8565b005b61028e611159565b60405161029b9190611dce565b60405180910390f35b6102be60048036038101906102b99190611e87565b61116c565b6040516102cb9190611dce565b60405180910390f35b6102dc61118c565b6040516102e99190611add565b60405180910390f35b6102fa611192565b6040516103079190611d48565b60405180910390f35b610318611220565b6040516103259190611dce565b60405180910390f35b610336611233565b6040516103439190611f13565b60405180910390f35b61036660048036038101906103619190611f2e565b611259565b6040516103739190611add565b60405180910390f35b61039660048036038101906103919190611fce565b61127e565b005b6103a061158b565b005b6103bc60048036038101906103b79190611aa1565b61191b565b6040516103c99190611d48565b60405180910390f35b6103da6119c7565b6040516103e7919061202a565b60405180910390f35b600c60009054906101000a900460ff1661043f576040517f08c379a0000000000000000000000000000000000000000000000000000000008152600401610436906120b7565b60405180910390fd5b600b60003373ffffffffffffffffffffffffffffffffffffffff1673ffffffffffffffffffffffffffffffffffffffff16815260200190815260200160002060009054906101000a900460ff16156104cc576040517f08c379a00000000000000000000000000000000000000000000000000000000081526004016104c390612123565b60405180910390fd5b6000805b6002805490508110156105ae576000600460003373ffffffffffffffffffffffffffffffffffffffff1673ffffffffffffffffffffffffffffffffffffffff168152602001908152602001600020600083815260200190815260200160002054905060008111156105a05780836105479190612172565b92506000600460003373ffffffffffffffffffffffffffffffffffffffff1673ffffffffffffffffffffffffffffffffffffffff1681526020019081526020016000206000848152602001908152602001600020819055505b5080806001019150506104d0565b50600081116105f2576040517f08c379a00000000000000000000000000000000000000000000000000000000081526004016105e9906121f2565b60405180910390fd5b6001600b60003373ffffffffffffffffffffffffffffffffffffffff1673ffffffffffffffffffffffffffffffffffffffff16815260200190815260200160002060006101000a81548160ff021916908315150217905550600a60009054906101000a900473ffffffffffffffffffffffffffffffffffffffff1673ffffffffffffffffffffffffffffffffffffffff1663a9059cbb33836040518363ffffffff1660e01b81526004016106a7929190612212565b6020604051808303816000875af11580156106c6573d6000803e3d6000fd5b505050506040513d601f19601f820116820180604052508101906106ea9190612267565b610729576040517f08c379a0000000000000000000000000000000000000000000000000000000008152600401610720906122e0565b60405180910390fd5b3373ffffffffffffffffffffffffffffffffffffffff167fe702eab3ab2e83188aaf6869de6c8a9328b3a91950810fde2bc75371084297338260405161076f9190611add565b60405180910390a250565b6006818154811061078a57600080fd5b906000526020600020016000915090505481565b60085442106107e2576040517f08c379a00000000000000000000000000000000000000000000000000000000081526004016107d99061234c565b60405180910390fd5b600960009054906101000a900460ff1615610832576040517f08c379a0000000000000000000000000000000000000000000000000000000008152600401610829906123b8565b60405180910390fd5b600e60009054906101000a900460ff16610881576040517f08c379a00000000000000000000000000000000000000000000000000000000081526004016108789061244a565b60405180910390fd5b60038360405161089191906124a6565b908152602001604051809103902060009054906101000a900460ff16156108ed576040517f08c379a00000000000000000000000000000000000000000000000000000000081526004016108e490612509565b60405180910390fd5b60008111610930576040517f08c379a00000000000000000000000000000000000000000000000000000000081526004016109279061259b565b60405180910390fd5b600a60009054906101000a900473ffffffffffffffffffffffffffffffffffffffff1673ffffffffffffffffffffffffffffffffffffffff166323b872dd3330846040518463ffffffff1660e01b815260040161098f939291906125bb565b6020604051808303816000875af11580156109ae573d6000803e3d6000fd5b505050506040513d601f19601f820116820180604052508101906109d29190612267565b610a11576040517f08c379a0000000000000000000000000000000000000000000000000000000008152600401610a089061263e565b60405180910390fd5b60006002805490509050600283908060018154018082558091505060019003906000526020600020016000909190919091509081610a4f9190612860565b506001600385604051610a6291906124a6565b908152602001604051809103902060006101000a81548160ff02191690831515021790555081600460003373ffffffffffffffffffffffffffffffffffffffff1673ffffffffffffffffffffffffffffffffffffffff1681526020019081526020016000206000838152602001908152602001600020819055508160056000838152602001908152602001600020819055507f0ceab8fd0b36082ac234cf603eec52e9b9ee951562f7a43bf3fea246a47b0497838583604051610b2793929190612932565b60405180910390a150505050565b600d8054610b429061268d565b80601f0160208091040260200160405190810160405280929190818152602001828054610b6e9061268d565b8015610bbb5780601f10610b9057610100808354040283529160200191610bbb565b820191906000526020600020905b815481529060010190602001808311610b9e57829003601f168201915b505050505081565b6003818051602081018201805184825260208301602085012081835280955050505050506000915054906101000a900460ff1681565b600960009054906101000a900460ff1681565b60056020528060005260406000206000915090505481565b60085481565b60008054610c379061268d565b80601f0160208091040260200160405190810160405280929190818152602001828054610c639061268d565b8015610cb05780601f10610c8557610100808354040283529160200191610cb0565b820191906000526020600020905b815481529060010190602001808311610c9357829003601f168201915b505050505081565b6008544210610cfc576040517f08c379a0000000000000000000000000000000000000000000000000000000008152600401610cf39061234c565b60405180910390fd5b600960009054906101000a900460ff1615610d4c576040517f08c379a0000000000000000000000000000000000000000000000000000000008152600401610d43906123b8565b60405180910390fd5b6002805490508210610d93576040517f08c379a0000000000000000000000000000000000000000000000000000000008152600401610d8a906129c3565b60405180910390fd5b60008111610dd6576040517f08c379a0000000000000000000000000000000000000000000000000000000008152600401610dcd90612a55565b60405180910390fd5b80600a60009054906101000a900473ffffffffffffffffffffffffffffffffffffffff1673ffffffffffffffffffffffffffffffffffffffff166370a08231336040518263ffffffff1660e01b8152600401610e32919061202a565b602060405180830381865afa158015610e4f573d6000803e3d6000fd5b505050506040513d601f19601f82011682018060405250810190610e739190612a8a565b1015610eb4576040517f08c379a0000000000000000000000000000000000000000000000000000000008152600401610eab90612b03565b60405180910390fd5b80600a60009054906101000a900473ffffffffffffffffffffffffffffffffffffffff1673ffffffffffffffffffffffffffffffffffffffff1663dd62ed3e33306040518363ffffffff1660e01b8152600401610f12929190612b23565b602060405180830381865afa158015610f2f573d6000803e3d6000fd5b505050506040513d601f19601f82011682018060405250810190610f539190612a8a565b1015610f94576040517f08c379a0000000000000000000000000000000000000000000000000000000008152600401610f8b90612b98565b60405180910390fd5b600a60009054906101000a900473ffffffffffffffffffffffffffffffffffffffff1673ffffffffffffffffffffffffffffffffffffffff166323b872dd3330846040518463ffffffff1660e01b8152600401610ff3939291906125bb565b6020604051808303816000875af1158015611012573d6000803e3d6000fd5b505050506040513d601f19601f820116820180604052508101906110369190612267565b611075576040517f08c379a000000000000000000000000000000000000000000000000000000000815260040161106c9061263e565b60405180910390fd5b80600460003373ffffffffffffffffffffffffffffffffffffffff1673ffffffffffffffffffffffffffffffffffffffff168152602001908152602001600020600084815260200190815260200160002060008282546110d59190612172565b92505081905550806005600084815260200190815260200160002060008282546110ff9190612172565b925050819055503373ffffffffffffffffffffffffffffffffffffffff167e1ecf1d0c4d22f324b3ecb9cdf0e5f772bc74ac104e6626f4b3845433d03105838360405161114d929190612bb8565b60405180910390a25050565b600c60009054906101000a900460ff1681565b600b6020528060005260406000206000915054906101000a900460ff1681565b60075481565b6001805461119f9061268d565b80601f01602080910402602001604051908101604052809291908181526020018280546111cb9061268d565b80156112185780601f106111ed57610100808354040283529160200191611218565b820191906000526020600020905b8154815290600101906020018083116111fb57829003601f168201915b505050505081565b600e60009054906101000a900460ff1681565b600a60009054906101000a900473ffffffffffffffffffffffffffffffffffffffff1681565b6004602052816000526040600020602052806000526040600020600091509150505481565b600960019054906101000a900473ffffffffffffffffffffffffffffffffffffffff1673ffffffffffffffffffffffffffffffffffffffff163373ffffffffffffffffffffffffffffffffffffffff161461130e576040517f08c379a000000000000000000000000000000000000000000000000000000000815260040161130590612c53565b60405180910390fd5b600854421015611353576040517f08c379a000000000000000000000000000000000000000000000000000000000815260040161134a90612cbf565b60405180910390fd5b600960009054906101000a900460ff16156113a3576040517f08c379a000000000000000000000000000000000000000000000000000000000815260040161139a906123b8565b60405180910390fd5b6000805b83839050811015611459576002805490508484838181106113cb576113ca612cdf565b5b9050602002013510611412576040517f08c379a0000000000000000000000000000000000000000000000000000000008152600401611409906129c3565b60405180910390fd5b6005600085858481811061142957611428612cdf565b5b905060200201358152602001908152602001600020548261144a9190612172565b915080806001019150506113a7565b506000810361147e576001600c60006101000a81548160ff0219169083151502179055505b600a60009054906101000a900473ffffffffffffffffffffffffffffffffffffffff1673ffffffffffffffffffffffffffffffffffffffff166370a08231306040518263ffffffff1660e01b81526004016114d9919061202a565b602060405180830381865afa1580156114f6573d6000803e3d6000fd5b505050506040513d601f19601f8201168201806040525081019061151a9190612a8a565b6007819055508282600691906115319291906119ed565b506001600960006101000a81548160ff0219169083151502179055507f4c5e0ddce490471bdd86eb492ea96961fd9c110928c24dc181c80e79812f4f97838360405161157e929190612d89565b60405180910390a1505050565b600960009054906101000a900460ff166115da576040517f08c379a00000000000000000000000000000000000000000000000000000000081526004016115d190612df9565b60405180910390fd5b600b60003373ffffffffffffffffffffffffffffffffffffffff1673ffffffffffffffffffffffffffffffffffffffff16815260200190815260200160002060009054906101000a900460ff1615611667576040517f08c379a000000000000000000000000000000000000000000000000000000000815260040161165e90612e65565b60405180910390fd5b6000806000600754905060005b6006805490508110156117315760006006828154811061169757611696612cdf565b5b90600052602060002001549050600460003373ffffffffffffffffffffffffffffffffffffffff1673ffffffffffffffffffffffffffffffffffffffff168152602001908152602001600020600082815260200190815260200160002054856117009190612172565b94506005600082815260200190815260200160002054846117219190612172565b9350508080600101915050611674565b5060008311611775576040517f08c379a000000000000000000000000000000000000000000000000000000000815260040161176c90612ed1565b60405180910390fd5b60008282856117849190612ef1565b61178e9190612f62565b90506001600b60003373ffffffffffffffffffffffffffffffffffffffff1673ffffffffffffffffffffffffffffffffffffffff16815260200190815260200160002060006101000a81548160ff021916908315150217905550600a60009054906101000a900473ffffffffffffffffffffffffffffffffffffffff1673ffffffffffffffffffffffffffffffffffffffff1663a9059cbb33836040518363ffffffff1660e01b8152600401611845929190612212565b6020604051808303816000875af1158015611864573d6000803e3d6000fd5b505050506040513d601f19601f820116820180604052508101906118889190612267565b6118c7576040517f08c379a00000000000000000000000000000000000000000000000000000000081526004016118be9061263e565b60405180910390fd5b3373ffffffffffffffffffffffffffffffffffffffff167f24215bbaf0832fa4d6ffef16dee3971d8b714921fef3ad63f793d578983c6dc28260405161190d9190611add565b60405180910390a250505050565b6002818154811061192b57600080fd5b9060005260206000200160009150905080546119469061268d565b80601f01602080910402602001604051908101604052809291908181526020018280546119729061268d565b80156119bf5780601f10611994576101008083540402835291602001916119bf565b820191906000526020600020905b8154815290600101906020018083116119a257829003601f168201915b505050505081565b600960019054906101000a900473ffffffffffffffffffffffffffffffffffffffff1681565b828054828255906000526020600020908101928215611a29579160200282015b82811115611a28578235825591602001919060010190611a0d565b5b509050611a369190611a3a565b5090565b5b80821115611a53576000816000905550600101611a3b565b5090565b6000604051905090565b600080fd5b600080fd5b6000819050919050565b611a7e81611a6b565b8114611a8957600080fd5b50565b600081359050611a9b81611a75565b92915050565b600060208284031215611ab757611ab6611a61565b5b6000611ac584828501611a8c565b91505092915050565b611ad781611a6b565b82525050565b6000602082019050611af26000830184611ace565b92915050565b600080fd5b600080fd5b6000601f19601f8301169050919050565b7f4e487b7100000000000000000000000000000000000000000000000000000000600052604160045260246000fd5b611b4b82611b02565b810181811067ffffffffffffffff82111715611b6a57611b69611b13565b5b80604052505050565b6000611b7d611a57565b9050611b898282611b42565b919050565b600067ffffffffffffffff821115611ba957611ba8611b13565b5b611bb282611b02565b9050602081019050919050565b82818337600083830152505050565b6000611be1611bdc84611b8e565b611b73565b905082815260208101848484011115611bfd57611bfc611afd565b5b611c08848285611bbf565b509392505050565b600082601f830112611c2557611c24611af8565b5b8135611c35848260208601611bce565b91505092915050565b600080600060608486031215611c5757611c56611a61565b5b600084013567ffffffffffffffff811115611c7557611c74611a66565b5b611c8186828701611c10565b935050602084013567ffffffffffffffff811115611ca257611ca1611a66565b5b611cae86828701611c10565b9250506040611cbf86828701611a8c565b9150509250925092565b600081519050919050565b600082825260208201905092915050565b60005b83811015611d03578082015181840152602081019050611ce8565b60008484015250505050565b6000611d1a82611cc9565b611d248185611cd4565b9350611d34818560208601611ce5565b611d3d81611b02565b840191505092915050565b60006020820190508181036000830152611d628184611d0f565b905092915050565b600060208284031215611d8057611d7f611a61565b5b600082013567ffffffffffffffff811115611d9e57611d9d611a66565b5b611daa84828501611c10565b91505092915050565b60008115159050919050565b611dc881611db3565b82525050565b6000602082019050611de36000830184611dbf565b92915050565b60008060408385031215611e0057611dff611a61565b5b6000611e0e85828601611a8c565b9250506020611e1f85828601611a8c565b9150509250929050565b600073ffffffffffffffffffffffffffffffffffffffff82169050919050565b6000611e5482611e29565b9050919050565b611e6481611e49565b8114611e6f57600080fd5b50565b600081359050611e8181611e5b565b92915050565b600060208284031215611e9d57611e9c611a61565b5b6000611eab84828501611e72565b91505092915050565b6000819050919050565b6000611ed9611ed4611ecf84611e29565b611eb4565b611e29565b9050919050565b6000611eeb82611ebe565b9050919050565b6000611efd82611ee0565b9050919050565b611f0d81611ef2565b82525050565b6000602082019050611f286000830184611f04565b92915050565b60008060408385031215611f4557611f44611a61565b5b6000611f5385828601611e72565b9250506020611f6485828601611a8c565b9150509250929050565b600080fd5b600080fd5b60008083601f840112611f8e57611f8d611af8565b5b8235905067ffffffffffffffff811115611fab57611faa611f6e565b5b602083019150836020820283011115611fc757611fc6611f73565b5b9250929050565b60008060208385031215611fe557611fe4611a61565b5b600083013567ffffffffffffffff81111561200357612002611a66565b5b61200f85828601611f78565b92509250509250929050565b61202481611e49565b82525050565b600060208201905061203f600083018461201b565b92915050565b7f526566756e647320617265206e6f7420656e61626c656420666f72207468697360008201527f206d61726b65742e000000000000000000000000000000000000000000000000602082015250565b60006120a1602883611cd4565b91506120ac82612045565b604082019050919050565b600060208201905081810360008301526120d081612094565b9050919050565b7f526566756e6420616c726561647920636c61696d65642e000000000000000000600082015250565b600061210d601783611cd4565b9150612118826120d7565b602082019050919050565b6000602082019050818103600083015261213c81612100565b9050919050565b7f4e487b7100000000000000000000000000000000000000000000000000000000600052601160045260246000fd5b600061217d82611a6b565b915061218883611a6b565b92508282019050808211156121a05761219f612143565b5b92915050565b7f4e6f2066756e647320746f20726566756e642e00000000000000000000000000600082015250565b60006121dc601383611cd4565b91506121e7826121a6565b602082019050919050565b6000602082019050818103600083015261220b816121cf565b9050919050565b6000604082019050612227600083018561201b565b6122346020830184611ace565b9392505050565b61224481611db3565b811461224f57600080fd5b50565b6000815190506122618161223b565b92915050565b60006020828403121561227d5761227c611a61565b5b600061228b84828501612252565b91505092915050565b7f526566756e64207472616e73666572206661696c65642e000000000000000000600082015250565b60006122ca601783611cd4565b91506122d582612294565b602082019050919050565b600060208201905081810360008301526122f9816122bd565b9050919050565b7f4d61726b65742068617320657870697265642e00000000000000000000000000600082015250565b6000612336601383611cd4565b915061234182612300565b602082019050919050565b6000602082019050818103600083015261236581612329565b9050919050565b7f4d61726b657420697320616c7265616479207265736f6c7665642e0000000000600082015250565b60006123a2601b83611cd4565b91506123ad8261236c565b602082019050919050565b600060208201905081810360008301526123d181612395565b9050919050565b7f416464696e67206e6577206f7574636f6d6573206973206e6f7420616c6c6f7760008201527f656420666f722074686973206d61726b65740000000000000000000000000000602082015250565b6000612434603283611cd4565b915061243f826123d8565b604082019050919050565b6000602082019050818103600083015261246381612427565b9050919050565b600081905092915050565b600061248082611cc9565b61248a818561246a565b935061249a818560208601611ce5565b80840191505092915050565b60006124b28284612475565b915081905092915050565b7f54686973206f7574636f6d6520616c7265616479206578697374732e00000000600082015250565b60006124f3601c83611cd4565b91506124fe826124bd565b602082019050919050565b60006020820190508181036000830152612522816124e6565b9050919050565b7f5374616b6520616d6f756e74206d75737420626520677265617465722074686160008201527f6e207a65726f2e00000000000000000000000000000000000000000000000000602082015250565b6000612585602783611cd4565b915061259082612529565b604082019050919050565b600060208201905081810360008301526125b481612578565b9050919050565b60006060820190506125d0600083018661201b565b6125dd602083018561201b565b6125ea6040830184611ace565b949350505050565b7f546f6b656e207472616e73666572206661696c65642e00000000000000000000600082015250565b6000612628601683611cd4565b9150612633826125f2565b602082019050919050565b600060208201905081810360008301526126578161261b565b9050919050565b7f4e487b7100000000000000000000000000000000000000000000000000000000600052602260045260246000fd5b600060028204905060018216806126a557607f821691505b6020821081036126b8576126b761265e565b5b50919050565b60008190508160005260206000209050919050565b60006020601f8301049050919050565b600082821b905092915050565b6000600883026127207fffffffffffffffffffffffffffffffffffffffffffffffffffffffffffffffff826126e3565b61272a86836126e3565b95508019841693508086168417925050509392505050565b600061275d61275861275384611a6b565b611eb4565b611a6b565b9050919050565b6000819050919050565b61277783612742565b61278b61278382612764565b8484546126f0565b825550505050565b600090565b6127a0612793565b6127ab81848461276e565b505050565b5b818110156127cf576127c4600082612798565b6001810190506127b1565b5050565b601f821115612814576127e5816126be565b6127ee846126d3565b810160208510156127fd578190505b612811612809856126d3565b8301826127b0565b50505b505050565b600082821c905092915050565b600061283760001984600802612819565b1980831691505092915050565b60006128508383612826565b9150826002028217905092915050565b61286982611cc9565b67ffffffffffffffff81111561288257612881611b13565b5b61288c825461268d565b6128978282856127d3565b600060209050601f8311600181146128ca57600084156128b8578287015190505b6128c28582612844565b86555061292a565b601f1984166128d8866126be565b60005b82811015612900578489015182556001820191506020850194506020810190506128db565b8683101561291d5784890151612919601f891682612826565b8355505b6001600288020188555050505b505050505050565b6000606082019050818103600083015261294c8186611d0f565b905081810360208301526129608185611d0f565b905061296f6040830184611ace565b949350505050565b7f496e76616c6964206f7574636f6d6520696e6465782e00000000000000000000600082015250565b60006129ad601683611cd4565b91506129b882612977565b602082019050919050565b600060208201905081810360008301526129dc816129a0565b9050919050565b7f42657420616d6f756e74206d7573742062652067726561746572207468616e2060008201527f7a65726f2e000000000000000000000000000000000000000000000000000000602082015250565b6000612a3f602583611cd4565b9150612a4a826129e3565b604082019050919050565b60006020820190508181036000830152612a6e81612a32565b9050919050565b600081519050612a8481611a75565b92915050565b600060208284031215612aa057612a9f611a61565b5b6000612aae84828501612a75565b91505092915050565b7f496e73756666696369656e742062616c616e63652e0000000000000000000000600082015250565b6000612aed601583611cd4565b9150612af882612ab7565b602082019050919050565b60006020820190508181036000830152612b1c81612ae0565b9050919050565b6000604082019050612b38600083018561201b565b612b45602083018461201b565b9392505050565b7f416c6c6f77616e636520746f6f206c6f772e0000000000000000000000000000600082015250565b6000612b82601283611cd4565b9150612b8d82612b4c565b602082019050919050565b60006020820190508181036000830152612bb181612b75565b9050919050565b6000604082019050612bcd6000830185611ace565b612bda6020830184611ace565b9392505050565b7f4f6e6c79207468652061646d696e2063616e207265736f6c766520746865206d60008201527f61726b65742e0000000000000000000000000000000000000000000000000000602082015250565b6000612c3d602683611cd4565b9150612c4882612be1565b604082019050919050565b60006020820190508181036000830152612c6c81612c30565b9050919050565b7f4d61726b657420686173206e6f742079657420657870697265642e0000000000600082015250565b6000612ca9601b83611cd4565b9150612cb482612c73565b602082019050919050565b60006020820190508181036000830152612cd881612c9c565b9050919050565b7f4e487b7100000000000000000000000000000000000000000000000000000000600052603260045260246000fd5b600082825260208201905092915050565b600080fd5b82818337505050565b6000612d398385612d0e565b93507f07ffffffffffffffffffffffffffffffffffffffffffffffffffffffffffffff831115612d6c57612d6b612d1f565b5b602083029250612d7d838584612d24565b82840190509392505050565b60006020820190508181036000830152612da4818486612d2d565b90509392505050565b7f4d61726b6574206973206e6f7420796574207265736f6c7665642e0000000000600082015250565b6000612de3601b83611cd4565b9150612dee82612dad565b602082019050919050565b60006020820190508181036000830152612e1281612dd6565b9050919050565b7f57696e6e696e677320616c72656164792077697468647261776e2e0000000000600082015250565b6000612e4f601b83611cd4565b9150612e5a82612e19565b602082019050919050565b60006020820190508181036000830152612e7e81612e42565b9050919050565b7f4e6f2077696e6e696e677320666f72207468697320757365722e000000000000600082015250565b6000612ebb601a83611cd4565b9150612ec682612e85565b602082019050919050565b60006020820190508181036000830152612eea81612eae565b9050919050565b6000612efc82611a6b565b9150612f0783611a6b565b9250828202612f1581611a6b565b91508282048414831517612f2c57612f2b612143565b5b5092915050565b7f4e487b7100000000000000000000000000000000000000000000000000000000600052601260045260246000fd5b6000612f6d82611a6b565b9150612f7883611a6b565b925082612f8857612f87612f33565b5b82820490509291505056fea264697066735822122099f8ca2c3d03353355d41823b7bc9c927de948235f4eadd4f485c712586c587364736f6c634300081b0033a264697066735822122062df28693ce734658c33d33e100d381b2b95fe3308ac5e1bfa9a4c764d87f68564736f6c634300081b0033",
  "linkReferences": {},
  "deployedLinkReferences": {}
}